{
  "_format": "hh-sol-artifact-1",
  "contractName": "EthToFxyExchange",
  "sourceName": "contracts/EthToFxyExchange.sol",
  "abi": [
    {
      "inputs": [
        {
          "internalType": "address",
          "name": "_fxyTokenAddress",
          "type": "address"
        },
        {
          "internalType": "uint256",
          "name": "_initialConversionRate",
          "type": "uint256"
        }
      ],
      "stateMutability": "nonpayable",
      "type": "constructor"
    },
    {
      "anonymous": false,
      "inputs": [
        {
          "indexed": true,
          "internalType": "address",
          "name": "buyer",
          "type": "address"
        },
        {
          "indexed": false,
          "internalType": "uint256",
          "name": "ethAmount",
          "type": "uint256"
        },
        {
          "indexed": false,
          "internalType": "uint256",
          "name": "fxyAmount",
          "type": "uint256"
        }
      ],
      "name": "TokensPurchased",
      "type": "event"
    },
    {
      "anonymous": false,
      "inputs": [
        {
          "indexed": true,
          "internalType": "address",
          "name": "user",
          "type": "address"
        },
        {
          "indexed": false,
          "internalType": "uint256",
          "name": "ethAmount",
          "type": "uint256"
        },
        {
          "indexed": false,
          "internalType": "uint256",
          "name": "fxyAmount",
          "type": "uint256"
        }
      ],
      "name": "TokensWithdrawn",
      "type": "event"
    },
    {
      "inputs": [],
      "name": "conversionRate",
      "outputs": [
        {
          "internalType": "uint256",
          "name": "",
          "type": "uint256"
        }
      ],
      "stateMutability": "view",
      "type": "function"
    },
    {
      "inputs": [],
      "name": "fxyToken",
      "outputs": [
        {
          "internalType": "contract IERC20",
          "name": "",
          "type": "address"
        }
      ],
      "stateMutability": "view",
      "type": "function"
    },
    {
      "inputs": [],
      "name": "initialConversionRate",
      "outputs": [
        {
          "internalType": "uint256",
          "name": "",
          "type": "uint256"
        }
      ],
      "stateMutability": "view",
      "type": "function"
    },
    {
      "inputs": [],
      "name": "lastConversionRate",
      "outputs": [
        {
          "internalType": "uint256",
          "name": "",
          "type": "uint256"
        }
      ],
      "stateMutability": "view",
      "type": "function"
    },
    {
      "inputs": [],
      "name": "owner",
      "outputs": [
        {
          "internalType": "address",
          "name": "",
          "type": "address"
        }
      ],
      "stateMutability": "view",
      "type": "function"
    },
    {
      "inputs": [
        {
          "internalType": "uint256",
          "name": "_newConversionRate",
          "type": "uint256"
        }
      ],
      "name": "updateConversionRate",
      "outputs": [],
      "stateMutability": "nonpayable",
      "type": "function"
    },
    {
      "inputs": [
        {
          "internalType": "address",
          "name": "",
          "type": "address"
        }
      ],
      "name": "userDepositedMaticAmounts",
      "outputs": [
        {
          "internalType": "uint256",
          "name": "",
          "type": "uint256"
        }
      ],
      "stateMutability": "view",
      "type": "function"
    },
    {
      "inputs": [
        {
          "internalType": "address",
          "name": "",
          "type": "address"
        }
      ],
      "name": "userFxyBalances",
      "outputs": [
        {
          "internalType": "uint256",
          "name": "",
          "type": "uint256"
        }
      ],
      "stateMutability": "view",
      "type": "function"
    },
    {
      "inputs": [],
      "name": "withdrawEth",
      "outputs": [],
      "stateMutability": "nonpayable",
      "type": "function"
    },
    {
      "inputs": [
        {
          "internalType": "address",
          "name": "user",
          "type": "address"
        },
        {
          "internalType": "uint256",
          "name": "depositIndex",
          "type": "uint256"
        },
        {
          "internalType": "uint256",
          "name": "withdrawalAmount",
          "type": "uint256"
        }
      ],
      "name": "withdrawEthtofxy",
      "outputs": [],
      "stateMutability": "nonpayable",
      "type": "function"
    },
    {
      "stateMutability": "payable",
      "type": "receive"
    }
  ],
  "bytecode": "0x60806040523480156200001157600080fd5b50604051620013c9380380620013c983398181016040528101906200003791906200017a565b816000806101000a81548173ffffffffffffffffffffffffffffffffffffffff021916908373ffffffffffffffffffffffffffffffffffffffff16021790555033600160006101000a81548173ffffffffffffffffffffffffffffffffffffffff021916908373ffffffffffffffffffffffffffffffffffffffff1602179055508060028190555080600381905550806004819055505050620001c1565b600080fd5b600073ffffffffffffffffffffffffffffffffffffffff82169050919050565b60006200010782620000da565b9050919050565b6200011981620000fa565b81146200012557600080fd5b50565b60008151905062000139816200010e565b92915050565b6000819050919050565b62000154816200013f565b81146200016057600080fd5b50565b600081519050620001748162000149565b92915050565b60008060408385031215620001945762000193620000d5565b5b6000620001a48582860162000128565b9250506020620001b78582860162000163565b9150509250929050565b6111f880620001d16000396000f3fe6080604052600436106100955760003560e01c80639882621c116100595780639882621c1461034d578063a0ef91df14610378578063c1bb31f11461038f578063ee1bd785146103cc578063f9cddde2146103f557610261565b8063216bd217146102665780637f866efa146102a35780637ffdf53e146102ce57806387fcdbc1146102f95780638da5cb5b1461032257610261565b366102615760003490506000670de0b6b3a7640000600454836100b89190610ab5565b6100c29190610b26565b905060008054906101000a900473ffffffffffffffffffffffffffffffffffffffff1673ffffffffffffffffffffffffffffffffffffffff1663a9059cbb33836040518363ffffffff1660e01b815260040161011f929190610ba7565b6020604051808303816000875af115801561013e573d6000803e3d6000fd5b505050506040513d601f19601f820116820180604052508101906101629190610c0d565b5080600560003373ffffffffffffffffffffffffffffffffffffffff1673ffffffffffffffffffffffffffffffffffffffff16815260200190815260200160002060008282546101b29190610c3a565b9250508190555034600660003373ffffffffffffffffffffffffffffffffffffffff1673ffffffffffffffffffffffffffffffffffffffff16815260200190815260200160002060008282546102089190610c3a565b925050819055503373ffffffffffffffffffffffffffffffffffffffff167f8fafebcaf9d154343dad25669bfa277f4fbacd7ac6b0c4fed522580e040a0f338383604051610257929190610c6e565b60405180910390a2005b600080fd5b34801561027257600080fd5b5061028d60048036038101906102889190610cc3565b610420565b60405161029a9190610cf0565b60405180910390f35b3480156102af57600080fd5b506102b8610438565b6040516102c59190610d6a565b60405180910390f35b3480156102da57600080fd5b506102e361045c565b6040516102f09190610cf0565b60405180910390f35b34801561030557600080fd5b50610320600480360381019061031b9190610db1565b610462565b005b34801561032e57600080fd5b50610337610505565b6040516103449190610dde565b60405180910390f35b34801561035957600080fd5b5061036261052b565b60405161036f9190610cf0565b60405180910390f35b34801561038457600080fd5b5061038d610531565b005b34801561039b57600080fd5b506103b660048036038101906103b19190610cc3565b61062c565b6040516103c39190610cf0565b60405180910390f35b3480156103d857600080fd5b506103f360048036038101906103ee9190610df9565b610644565b005b34801561040157600080fd5b5061040a610a76565b6040516104179190610cf0565b60405180910390f35b60066020528060005260406000206000915090505481565b60008054906101000a900473ffffffffffffffffffffffffffffffffffffffff1681565b60025481565b600160009054906101000a900473ffffffffffffffffffffffffffffffffffffffff1673ffffffffffffffffffffffffffffffffffffffff163373ffffffffffffffffffffffffffffffffffffffff16146104f2576040517f08c379a00000000000000000000000000000000000000000000000000000000081526004016104e990610ecf565b60405180910390fd5b6002546003819055508060028190555050565b600160009054906101000a900473ffffffffffffffffffffffffffffffffffffffff1681565b60045481565b600160009054906101000a900473ffffffffffffffffffffffffffffffffffffffff1673ffffffffffffffffffffffffffffffffffffffff163373ffffffffffffffffffffffffffffffffffffffff16146105c1576040517f08c379a00000000000000000000000000000000000000000000000000000000081526004016105b890610f3b565b60405180910390fd5b600160009054906101000a900473ffffffffffffffffffffffffffffffffffffffff1673ffffffffffffffffffffffffffffffffffffffff166108fc479081150290604051600060405180830381858888f19350505050158015610629573d6000803e3d6000fd5b50565b60056020528060005260406000206000915090505481565b600160009054906101000a900473ffffffffffffffffffffffffffffffffffffffff1673ffffffffffffffffffffffffffffffffffffffff163373ffffffffffffffffffffffffffffffffffffffff16036106d4576040517f08c379a00000000000000000000000000000000000000000000000000000000081526004016106cb90610fcd565b60405180910390fd5b3373ffffffffffffffffffffffffffffffffffffffff168373ffffffffffffffffffffffffffffffffffffffff1614610742576040517f08c379a000000000000000000000000000000000000000000000000000000000815260040161073990611039565b60405180910390fd5b600660003373ffffffffffffffffffffffffffffffffffffffff1673ffffffffffffffffffffffffffffffffffffffff1681526020019081526020016000205482106107c3576040517f08c379a00000000000000000000000000000000000000000000000000000000081526004016107ba906110a5565b60405180910390fd5b80600660003373ffffffffffffffffffffffffffffffffffffffff1673ffffffffffffffffffffffffffffffffffffffff168152602001908152602001600020541015610845576040517f08c379a000000000000000000000000000000000000000000000000000000000815260040161083c90611137565b60405180910390fd5b6000670de0b6b3a76400006003548361085e9190610ab5565b6108689190610b26565b905060008054906101000a900473ffffffffffffffffffffffffffffffffffffffff1673ffffffffffffffffffffffffffffffffffffffff166323b872dd3330846040518463ffffffff1660e01b81526004016108c793929190611157565b6020604051808303816000875af11580156108e6573d6000803e3d6000fd5b505050506040513d601f19601f8201168201806040525081019061090a9190610c0d565b5060025460035414610982573373ffffffffffffffffffffffffffffffffffffffff166108fc670de0b6b3a7640000600254856109479190610ab5565b6109519190610b26565b9081150290604051600060405180830381858888f1935050505015801561097c573d6000803e3d6000fd5b506109ca565b3373ffffffffffffffffffffffffffffffffffffffff166108fc839081150290604051600060405180830381858888f193505050501580156109c8573d6000803e3d6000fd5b505b80600560003373ffffffffffffffffffffffffffffffffffffffff1673ffffffffffffffffffffffffffffffffffffffff1681526020019081526020016000206000828254610a19919061118e565b925050819055503373ffffffffffffffffffffffffffffffffffffffff167fffe903c0abe6b2dbb2f3474ef43d7a3c1fca49e5a774453423ca8e1952aabffa8383604051610a68929190610c6e565b60405180910390a250505050565b60035481565b6000819050919050565b7f4e487b7100000000000000000000000000000000000000000000000000000000600052601160045260246000fd5b6000610ac082610a7c565b9150610acb83610a7c565b9250828202610ad981610a7c565b91508282048414831517610af057610aef610a86565b5b5092915050565b7f4e487b7100000000000000000000000000000000000000000000000000000000600052601260045260246000fd5b6000610b3182610a7c565b9150610b3c83610a7c565b925082610b4c57610b4b610af7565b5b828204905092915050565b600073ffffffffffffffffffffffffffffffffffffffff82169050919050565b6000610b8282610b57565b9050919050565b610b9281610b77565b82525050565b610ba181610a7c565b82525050565b6000604082019050610bbc6000830185610b89565b610bc96020830184610b98565b9392505050565b600080fd5b60008115159050919050565b610bea81610bd5565b8114610bf557600080fd5b50565b600081519050610c0781610be1565b92915050565b600060208284031215610c2357610c22610bd0565b5b6000610c3184828501610bf8565b91505092915050565b6000610c4582610a7c565b9150610c5083610a7c565b9250828201905080821115610c6857610c67610a86565b5b92915050565b6000604082019050610c836000830185610b98565b610c906020830184610b98565b9392505050565b610ca081610b77565b8114610cab57600080fd5b50565b600081359050610cbd81610c97565b92915050565b600060208284031215610cd957610cd8610bd0565b5b6000610ce784828501610cae565b91505092915050565b6000602082019050610d056000830184610b98565b92915050565b6000819050919050565b6000610d30610d2b610d2684610b57565b610d0b565b610b57565b9050919050565b6000610d4282610d15565b9050919050565b6000610d5482610d37565b9050919050565b610d6481610d49565b82525050565b6000602082019050610d7f6000830184610d5b565b92915050565b610d8e81610a7c565b8114610d9957600080fd5b50565b600081359050610dab81610d85565b92915050565b600060208284031215610dc757610dc6610bd0565b5b6000610dd584828501610d9c565b91505092915050565b6000602082019050610df36000830184610b89565b92915050565b600080600060608486031215610e1257610e11610bd0565b5b6000610e2086828701610cae565b9350506020610e3186828701610d9c565b9250506040610e4286828701610d9c565b9150509250925092565b600082825260208201905092915050565b7f4f6e6c79206f776e65722063616e2075706461746520636f6e76657273696f6e60008201527f2072617465000000000000000000000000000000000000000000000000000000602082015250565b6000610eb9602583610e4c565b9150610ec482610e5d565b604082019050919050565b60006020820190508181036000830152610ee881610eac565b9050919050565b7f4f6e6c79206f776e65722063616e207769746864726177204554480000000000600082015250565b6000610f25601b83610e4c565b9150610f3082610eef565b602082019050919050565b60006020820190508181036000830152610f5481610f18565b9050919050565b7f4f776e65722063616e6e6f742077697468647261772066726f6d20746869732060008201527f66756e6374696f6e000000000000000000000000000000000000000000000000602082015250565b6000610fb7602883610e4c565b9150610fc282610f5b565b604082019050919050565b60006020820190508181036000830152610fe681610faa565b9050919050565b7f496e76616c696420757365722061646472657373000000000000000000000000600082015250565b6000611023601483610e4c565b915061102e82610fed565b602082019050919050565b6000602082019050818103600083015261105281611016565b9050919050565b7f496e76616c6964206465706f73697420696e6465780000000000000000000000600082015250565b600061108f601583610e4c565b915061109a82611059565b602082019050919050565b600060208201905081810360008301526110be81611082565b9050919050565b7f496e73756666696369656e74206465706f7369746564204d6174696320616d6f60008201527f756e740000000000000000000000000000000000000000000000000000000000602082015250565b6000611121602383610e4c565b915061112c826110c5565b604082019050919050565b6000602082019050818103600083015261115081611114565b9050919050565b600060608201905061116c6000830186610b89565b6111796020830185610b89565b6111866040830184610b98565b949350505050565b600061119982610a7c565b91506111a483610a7c565b92508282039050818111156111bc576111bb610a86565b5b9291505056fea2646970667358221220d53e5acf23454694267c1005c6d83cb42bbcfe5710e8d838b2632d9c24acd50164736f6c63430008140033",
  "linkReferences": {},
  "deployedLinkReferences": {}
}